:100000000C9434000C9446000C9446000C9446006A
:100010000C9446000C9446000C9446000C94460048
:100020000C9446000C9446000C9446000C94460038
:100030000C9446000C9446000C9446000C94460028
:100040000C9448000C9446000C9446000C94460016
:100050000C9446000C9446000C9446000C94460008
:100060000C9446000C94460011241FBECFEFD8E03C
:10007000DEBFCDBF21E0A0E0B1E001C01D92A53000
:10008000B207E1F70E94A0000C94D7000C94000086
:100090001F920F920FB60F9211248F939F93AF93DD
:1000A000BF938091010190910201A0910301B09151
:1000B00004010196A11DB11D8093010190930201DD
:1000C000A0930301B0930401809100018F5F80939E
:1000D0000001809100018A32A8F010920001809105
:1000E000010190910201A0910301B09104010196D8
:1000F000A11DB11D8093010190930201A093030102
:10010000B0930401BF91AF919F918F910F900FBE5B
:100110000F901F90189585B5836085BDEEE6F0E0E1
:1001200080818160808378940895F89460910101C2
:1001300070910201809103019091040178940895D7
:10014000259A0E948B0088EEC82E83E0D82EE12CE1
:10015000F12C0E949500A70196010E94B50020FD98
:1001600002C02D9AF6CF2D98F4CFA1E21A2EAA1B29
:10017000BB1BFD010DC0AA1FBB1FEE1FFF1FA21757
:10018000B307E407F50720F0A21BB30BE40BF50B54
:10019000661F771F881F991F1A9469F760957095DD
:1001A000809590959B01AC01BD01CF010895F89415
:0201B000FFCF7F
:00000001FF
